{
  "contractName": "Enrollment",
  "abi": [
    {
      "inputs": [],
      "stateMutability": "nonpayable",
      "type": "constructor"
    },
    {
      "anonymous": false,
      "inputs": [
        {
          "indexed": true,
          "internalType": "uint256",
          "name": "conferenceId",
          "type": "uint256"
        },
        {
          "indexed": false,
          "internalType": "string",
          "name": "name",
          "type": "string"
        }
      ],
      "name": "ConferenceExpire",
      "type": "event"
    },
    {
      "anonymous": false,
      "inputs": [
        {
          "indexed": true,
          "internalType": "address",
          "name": "trustee",
          "type": "address"
        },
        {
          "indexed": true,
          "internalType": "address",
          "name": "participant",
          "type": "address"
        },
        {
          "indexed": true,
          "internalType": "uint256",
          "name": "conferenceId",
          "type": "uint256"
        }
      ],
      "name": "DelegateEnrollment",
      "type": "event"
    },
    {
      "anonymous": false,
      "inputs": [
        {
          "indexed": true,
          "internalType": "address",
          "name": "participant",
          "type": "address"
        },
        {
          "indexed": true,
          "internalType": "uint256",
          "name": "conferenceId",
          "type": "uint256"
        }
      ],
      "name": "EnrollmentSuccess",
      "type": "event"
    },
    {
      "anonymous": false,
      "inputs": [
        {
          "indexed": true,
          "internalType": "address",
          "name": "participant",
          "type": "address"
        },
        {
          "indexed": true,
          "internalType": "uint256",
          "name": "conferenceId",
          "type": "uint256"
        }
      ],
      "name": "MyNewConference",
      "type": "event"
    },
    {
      "anonymous": false,
      "inputs": [
        {
          "indexed": true,
          "internalType": "uint256",
          "name": "conferenceId",
          "type": "uint256"
        },
        {
          "indexed": false,
          "internalType": "string",
          "name": "name",
          "type": "string"
        },
        {
          "indexed": false,
          "internalType": "uint256",
          "name": "maxParticipants",
          "type": "uint256"
        }
      ],
      "name": "NewConference",
      "type": "event"
    },
    {
      "anonymous": false,
      "inputs": [
        {
          "indexed": true,
          "internalType": "address",
          "name": "participant",
          "type": "address"
        },
        {
          "indexed": false,
          "internalType": "string",
          "name": "name",
          "type": "string"
        }
      ],
      "name": "ParticipantRegistered",
      "type": "event"
    },
    {
      "inputs": [],
      "name": "administrator",
      "outputs": [
        {
          "internalType": "address",
          "name": "",
          "type": "address"
        }
      ],
      "stateMutability": "view",
      "type": "function",
      "constant": true
    },
    {
      "inputs": [
        {
          "internalType": "uint256",
          "name": "",
          "type": "uint256"
        }
      ],
      "name": "conferences",
      "outputs": [
        {
          "internalType": "string",
          "name": "name",
          "type": "string"
        },
        {
          "internalType": "uint256",
          "name": "maxParticipants",
          "type": "uint256"
        },
        {
          "internalType": "uint256",
          "name": "currentParticipants",
          "type": "uint256"
        },
        {
          "internalType": "bool",
          "name": "isFull",
          "type": "bool"
        }
      ],
      "stateMutability": "view",
      "type": "function",
      "constant": true
    },
    {
      "inputs": [
        {
          "internalType": "address",
          "name": "",
          "type": "address"
        }
      ],
      "name": "participants",
      "outputs": [
        {
          "internalType": "string",
          "name": "name",
          "type": "string"
        },
        {
          "internalType": "bool",
          "name": "isRegistered",
          "type": "bool"
        }
      ],
      "stateMutability": "view",
      "type": "function",
      "constant": true
    },
    {
      "inputs": [
        {
          "internalType": "address",
          "name": "",
          "type": "address"
        },
        {
          "internalType": "uint256",
          "name": "",
          "type": "uint256"
        }
      ],
      "name": "trustees",
      "outputs": [
        {
          "internalType": "string",
          "name": "name",
          "type": "string"
        },
        {
          "internalType": "bool",
          "name": "isRegistered",
          "type": "bool"
        }
      ],
      "stateMutability": "view",
      "type": "function",
      "constant": true
    },
    {
      "inputs": [
        {
          "internalType": "string",
          "name": "_name",
          "type": "string"
        }
      ],
      "name": "signUp",
      "outputs": [],
      "stateMutability": "nonpayable",
      "type": "function"
    },
    {
      "inputs": [
        {
          "internalType": "address",
          "name": "_trustee",
          "type": "address"
        }
      ],
      "name": "delegate",
      "outputs": [],
      "stateMutability": "nonpayable",
      "type": "function"
    },
    {
      "inputs": [
        {
          "internalType": "uint256",
          "name": "_conferenceId",
          "type": "uint256"
        }
      ],
      "name": "enroll",
      "outputs": [],
      "stateMutability": "nonpayable",
      "type": "function"
    },
    {
      "inputs": [
        {
          "internalType": "address",
          "name": "_participant",
          "type": "address"
        },
        {
          "internalType": "uint256",
          "name": "_conferenceId",
          "type": "uint256"
        }
      ],
      "name": "enrollFor",
      "outputs": [],
      "stateMutability": "nonpayable",
      "type": "function"
    },
    {
      "inputs": [
        {
          "internalType": "string",
          "name": "_name",
          "type": "string"
        },
        {
          "internalType": "uint256",
          "name": "_maxParticipants",
          "type": "uint256"
        }
      ],
      "name": "newConference",
      "outputs": [],
      "stateMutability": "nonpayable",
      "type": "function"
    },
    {
      "inputs": [],
      "name": "destruct",
      "outputs": [],
      "stateMutability": "nonpayable",
      "type": "function"
    },
    {
      "inputs": [],
      "name": "queryConfList",
      "outputs": [
        {
          "internalType": "uint256[]",
          "name": "",
          "type": "uint256[]"
        }
      ],
      "stateMutability": "view",
      "type": "function",
      "constant": true
    },
    {
      "inputs": [],
      "name": "queryMyConf",
      "outputs": [
        {
          "internalType": "uint256[]",
          "name": "",
          "type": "uint256[]"
        }
      ],
      "stateMutability": "view",
      "type": "function",
      "constant": true
    },
    {
      "inputs": [
        {
          "internalType": "uint256",
          "name": "_conferenceId",
          "type": "uint256"
        }
      ],
      "name": "getConferenceInfo",
      "outputs": [
        {
          "internalType": "string",
          "name": "name",
          "type": "string"
        },
        {
          "internalType": "uint256",
          "name": "maxParticipants",
          "type": "uint256"
        },
        {
          "internalType": "uint256",
          "name": "currentParticipants",
          "type": "uint256"
        },
        {
          "internalType": "bool",
          "name": "isFull",
          "type": "bool"
        }
      ],
      "stateMutability": "view",
      "type": "function",
      "constant": true
    },
    {
      "inputs": [
        {
          "internalType": "address",
          "name": "_participant",
          "type": "address"
        }
      ],
      "name": "getParticipantInfo",
      "outputs": [
        {
          "internalType": "string",
          "name": "name",
          "type": "string"
        },
        {
          "internalType": "bool",
          "name": "isRegistered",
          "type": "bool"
        }
      ],
      "stateMutability": "view",
      "type": "function",
      "constant": true
    },
    {
      "inputs": [],
      "name": "getConferenceCount",
      "outputs": [
        {
          "internalType": "uint256",
          "name": "",
          "type": "uint256"
        }
      ],
      "stateMutability": "view",
      "type": "function",
      "constant": true
    },
    {
      "inputs": [
        {
          "internalType": "address",
          "name": "_participant",
          "type": "address"
        },
        {
          "internalType": "uint256",
          "name": "_conferenceId",
          "type": "uint256"
        }
      ],
      "name": "isEnrolledInConference",
      "outputs": [
        {
          "internalType": "bool",
          "name": "",
          "type": "bool"
        }
      ],
      "stateMutability": "view",
      "type": "function",
      "constant": true
    }
  ],
  "bytecode": "0x608060405234801561001057600080fd5b50600080546001600160a01b0319163317905561197d806100326000396000f3fe608060405234801561001057600080fd5b50600436106101005760003560e01c806379fe9a9a11610097578063e4512d2e11610066578063e4512d2e1461020c578063f53d0a8e1461021f578063f57d585b1461024a578063fd4b8b781461025d57600080fd5b806379fe9a9a146101cb5780638e1c7087146101de578063adcfb4fc146101f1578063bf3d6af81461020457600080fd5b80633fec67bc116100d35780633fec67bc14610171578063430a7ba3146101825780635c19a95c146101a557806371bdce55146101b857600080fd5b806309e69ede14610105578063130fef551461012f5780632b68b9c614610152578063312e1d291461015c575b600080fd5b61011861011336600461126f565b610270565b6040516101269291906112d7565b60405180910390f35b61014261013d3660046112fb565b610317565b6040516101269493929190611314565b61015a61042e565b005b610164610466565b6040516101269190611345565b600254604051908152602001610126565b610195610190366004611389565b61058f565b6040519015158152602001610126565b61015a6101b336600461126f565b6105fd565b6101186101c636600461126f565b61075a565b6101426101d93660046112fb565b61081c565b6101186101ec366004611389565b6108e9565b61015a6101ff366004611456565b610929565b610164610aa8565b61015a61021a366004611389565b610b40565b600054610232906001600160a01b031681565b6040516001600160a01b039091168152602001610126565b61015a6102583660046112fb565b610d84565b61015a61026b366004611493565b610de8565b60016020526000908152604090208054819061028b906114d8565b80601f01602080910402602001604051908101604052809291908181526020018280546102b7906114d8565b80156103045780601f106102d957610100808354040283529160200191610304565b820191906000526020600020905b8154815290600101906020018083116102e757829003601f168201915b5050506001909301549192505060ff1682565b6060600080600084600280549050811061034c5760405162461bcd60e51b815260040161034390611512565b60405180910390fd5b60006002878154811061036157610361611549565b9060005260206000209060060201905080600001816001015482600201548360030160009054906101000a900460ff1683805461039d906114d8565b80601f01602080910402602001604051908101604052809291908181526020018280546103c9906114d8565b80156104165780601f106103eb57610100808354040283529160200191610416565b820191906000526020600020905b8154815290600101906020018083116103f957829003601f168201915b50505050509350955095509550955050509193509193565b6000546001600160a01b031633146104585760405162461bcd60e51b81526004016103439061155f565b6000546001600160a01b0316ff5b60606000805b6002548110156104c4576002818154811061048957610489611549565b600091825260209091206003600690920201015460ff166104b257816104ae816115be565b9250505b806104bc816115be565b91505061046c565b5060008167ffffffffffffffff8111156104e0576104e06113b3565b604051908082528060200260200182016040528015610509578160200160208202803683370190505b5090506000805b600254811015610586576002818154811061052d5761052d611549565b600091825260209091206003600690920201015460ff16610574578083838151811061055b5761055b611549565b602090810291909101015281610570816115be565b9250505b8061057e816115be565b915050610510565b50909392505050565b600254600090829081106105b55760405162461bcd60e51b815260040161034390611512565b600283815481106105c8576105c8611549565b600091825260208083206001600160a01b03881684526005600690930201919091019052604090205460ff1691505092915050565b336000908152600160208190526040909120015460ff166106305760405162461bcd60e51b8152600401610343906115d7565b6001600160a01b0381166106865760405162461bcd60e51b815260206004820152601760248201527f496e76616c6964207472757374656520616464726573730000000000000000006044820152606401610343565b336001600160a01b038216036106de5760405162461bcd60e51b815260206004820152601b60248201527f43616e6e6f742064656c656761746520746f20796f757273656c6600000000006044820152606401610343565b6001600160a01b03811660009081526003602081815260408084203385526001808452918520815492830182559085529190932090929091020180610723838261165d565b50600182810154908201805460ff191660ff90921615159190911790556002808301805461075492840191906111b3565b50505050565b6001600160a01b038116600090815260016020819052604082209081015481546060939291829160ff909116908290610792906114d8565b80601f01602080910402602001604051908101604052809291908181526020018280546107be906114d8565b801561080b5780601f106107e05761010080835404028352916020019161080b565b820191906000526020600020905b8154815290600101906020018083116107ee57829003601f168201915b505050505091509250925050915091565b6002818154811061082c57600080fd5b906000526020600020906006020160009150905080600001805461084f906114d8565b80601f016020809104026020016040519081016040528092919081815260200182805461087b906114d8565b80156108c85780601f1061089d576101008083540402835291602001916108c8565b820191906000526020600020905b8154815290600101906020018083116108ab57829003601f168201915b50505050600183015460028401546003909401549293909290915060ff1684565b6003602052816000526040600020818154811061090557600080fd5b90600052602060002090600302016000915091505080600001805461028b906114d8565b336000908152600160208190526040909120015460ff161561098d5760405162461bcd60e51b815260206004820152601760248201527f5573657220616c726561647920726567697374657265640000000000000000006044820152606401610343565b60008151116109d55760405162461bcd60e51b81526020600482015260146024820152734e616d652063616e6e6f7420626520656d70747960601b6044820152606401610343565b60408051606081018252828152600160208201529081016000604051908082528060200260200182016040528015610a17578160200160208202803683370190505b50905233600090815260016020526040902081518190610a37908261173e565b5060208281015160018301805460ff191691151591909117905560408301518051610a689260028501920190611203565b50506040513391507fbdb8c03a851fc898fb30c8b14ee28c26374ac77692867f54fbf009402f516e6190610a9d9084906117f8565b60405180910390a250565b336000908152600160208190526040909120015460609060ff16610ade5760405162461bcd60e51b8152600401610343906115d7565b3360009081526001602090815260409182902060020180548351818402810184019094528084529091830182828015610b3657602002820191906000526020600020905b815481526020019060010190808311610b22575b5050505050905090565b60025481908110610b635760405162461bcd60e51b815260040161034390611512565b6001600160a01b038316610bb95760405162461bcd60e51b815260206004820152601b60248201527f496e76616c6964207061727469636970616e74206164647265737300000000006044820152606401610343565b6001600160a01b0383166000908152600160208190526040909120015460ff16610c255760405162461bcd60e51b815260206004820152601e60248201527f5061727469636970616e74206d757374206265207265676973746572656400006044820152606401610343565b6000805b33600090815260036020526040902054811015610cd8576001600160a01b038516600090815260016020526040908190209051610c66919061180b565b6040805191829003909120336000908152600360205291909120805483908110610c9257610c92611549565b9060005260206000209060030201600001604051610cb0919061180b565b604051809103902003610cc65760019150610cd8565b80610cd0816115be565b915050610c29565b5080610d3c5760405162461bcd60e51b815260206004820152602d60248201527f4e6f2064656c65676174696f6e207065726d697373696f6e20666f722074686960448201526c1cc81c185c9d1a58da5c185b9d609a1b6064820152608401610343565b610d468484610f6f565b60405183906001600160a01b0386169033907fd1052199db5d1f115bcdbbbb913d3da6d4bb1fde0845fd1ff3bae4318aa00a3790600090a450505050565b336000908152600160208190526040909120015460ff16610db75760405162461bcd60e51b8152600401610343906115d7565b60025481908110610dda5760405162461bcd60e51b815260040161034390611512565b610de43383610f6f565b5050565b6000546001600160a01b03163314610e125760405162461bcd60e51b81526004016103439061155f565b6000825111610e635760405162461bcd60e51b815260206004820152601f60248201527f436f6e666572656e6365206e616d652063616e6e6f7420626520656d707479006044820152606401610343565b60008111610ec35760405162461bcd60e51b815260206004820152602760248201527f4d6178207061727469636970616e7473206d75737420626520677265617465726044820152660207468616e20360cc1b6064820152608401610343565b6002805460019081018083556000928352610ede9190611881565b9050600060028281548110610ef557610ef5611549565b60009182526020909120600690910201905080610f12858261173e565b50600181018390556000600282015560038101805460ff1916905560405182907f2e3b2ba9aca7ec7093a226515dc7bd148d26f670f30404a07b58caabce6a753f90610f61908790879061189a565b60405180910390a250505050565b600060028281548110610f8457610f84611549565b60009182526020909120600690910201600381015490915060ff1615610fe15760405162461bcd60e51b815260206004820152601260248201527110dbdb99995c995b98d9481a5cc8199d5b1b60721b6044820152606401610343565b6001600160a01b038316600090815260058201602052604090205460ff16156110585760405162461bcd60e51b815260206004820152602360248201527f416c726561647920656e726f6c6c656420696e207468697320636f6e666572656044820152626e636560e81b6064820152608401610343565b600481018054600180820183556000928352602080842090920180546001600160a01b0319166001600160a01b03881690811790915583526005840190915260408220805460ff19169091179055600282018054916110b6836115be565b90915550506001600160a01b03831660009081526001602081815260408320600290810180548085018255908552919093200184905582015490820154106111425760038101805460ff1916600117905560405182907f2aee8f3682f3eb5b412b1b375d94ab3515d53e3d8d8ff2658c0160cd93c32577906111399084906118bc565b60405180910390a25b60405182906001600160a01b038516907f8403d05c275f08aec9d18bdfa32d9a14239a9880dd53c5d3f78bb0c540b69c3490600090a360405182906001600160a01b038516907f25769bf7d20daa3a5b3815233cacbdb46bbdcf485f4e7799f2958adbf8bb2ecf90600090a3505050565b8280548282559060005260206000209081019282156111f35760005260206000209182015b828111156111f35782548255916001019190600101906111d8565b506111ff92915061123e565b5090565b8280548282559060005260206000209081019282156111f3579160200282015b828111156111f3578251825591602001919060010190611223565b5b808211156111ff576000815560010161123f565b80356001600160a01b038116811461126a57600080fd5b919050565b60006020828403121561128157600080fd5b61128a82611253565b9392505050565b6000815180845260005b818110156112b75760208185018101518683018201520161129b565b506000602082860101526020601f19601f83011685010191505092915050565b6040815260006112ea6040830185611291565b905082151560208301529392505050565b60006020828403121561130d57600080fd5b5035919050565b6080815260006113276080830187611291565b60208301959095525060408101929092521515606090910152919050565b6020808252825182820181905260009190848201906040850190845b8181101561137d57835183529284019291840191600101611361565b50909695505050505050565b6000806040838503121561139c57600080fd5b6113a583611253565b946020939093013593505050565b634e487b7160e01b600052604160045260246000fd5b600082601f8301126113da57600080fd5b813567ffffffffffffffff808211156113f5576113f56113b3565b604051601f8301601f19908116603f0116810190828211818310171561141d5761141d6113b3565b8160405283815286602085880101111561143657600080fd5b836020870160208301376000602085830101528094505050505092915050565b60006020828403121561146857600080fd5b813567ffffffffffffffff81111561147f57600080fd5b61148b848285016113c9565b949350505050565b600080604083850312156114a657600080fd5b823567ffffffffffffffff8111156114bd57600080fd5b6114c9858286016113c9565b95602094909401359450505050565b600181811c908216806114ec57607f821691505b60208210810361150c57634e487b7160e01b600052602260045260246000fd5b50919050565b60208082526019908201527f436f6e666572656e636520646f6573206e6f7420657869737400000000000000604082015260600190565b634e487b7160e01b600052603260045260246000fd5b60208082526029908201527f4f6e6c792061646d696e6973747261746f722063616e2063616c6c207468697360408201526810333ab731ba34b7b760b91b606082015260800190565b634e487b7160e01b600052601160045260246000fd5b6000600182016115d0576115d06115a8565b5060010190565b6020808252601d908201527f55736572206d7573742062652072656769737465726564206669727374000000604082015260600190565b601f82111561165857600081815260208120601f850160051c810160208610156116355750805b601f850160051c820191505b8181101561165457828155600101611641565b5050505b505050565b818103611668575050565b61167282546114d8565b67ffffffffffffffff81111561168a5761168a6113b3565b61169e8161169884546114d8565b8461160e565b6000601f8211600181146116d257600083156116ba5750848201545b600019600385901b1c1916600184901b178455611737565b600085815260209020601f19841690600086815260209020845b8381101561170c57828601548255600195860195909101906020016116ec565b508583101561172a5781850154600019600388901b60f8161c191681555b50505060018360011b0184555b5050505050565b815167ffffffffffffffff811115611758576117586113b3565b6117668161169884546114d8565b602080601f83116001811461179b57600084156117835750858301515b600019600386901b1c1916600185901b178555611654565b600085815260208120601f198616915b828110156117ca578886015182559484019460019091019084016117ab565b50858210156117e85787850151600019600388901b60f8161c191681555b5050505050600190811b01905550565b60208152600061128a6020830184611291565b6000808354611819816114d8565b60018281168015611831576001811461184657611875565b60ff1984168752821515830287019450611875565b8760005260208060002060005b8581101561186c5781548a820152908401908201611853565b50505082870194505b50929695505050505050565b81810381811115611894576118946115a8565b92915050565b6040815260006118ad6040830185611291565b90508260208301529392505050565b60006020808352600084546118d0816114d8565b808487015260406001808416600081146118f1576001811461190b57611939565b60ff1985168984015283151560051b890183019550611939565b896000528660002060005b858110156119315781548b8201860152908301908801611916565b8a0184019650505b50939897505050505050505056fea2646970667358221220d1510773c86ee28a38e8c1dd5c6e2ef923e1a5c69c299142b88b749406a28a2f64736f6c63430008130033",
  "immutableReferences": {},
  "source": "// SPDX-License-Identifier: MIT\r\npragma solidity ^0.8.19;\r\n\r\n/**\r\n * @title \r\n * @dev \r\n */\r\ncontract Enrollment {\r\n    \r\n    // \r\n    address public administrator;\r\n    \r\n    // \r\n    struct Participant {\r\n        string name;                    // \r\n        bool isRegistered;             // \r\n        uint[] enrolledConferences;    // ID\r\n    }\r\n    \r\n    // \r\n    struct Conference {\r\n        string name;                   // \r\n        uint maxParticipants;          // \r\n        uint currentParticipants;      // \r\n        bool isFull;                   // \r\n        address[] participants;        // \r\n        mapping(address => bool) isEnrolled; // \r\n    }\r\n    \r\n    // \r\n    mapping(address => Participant) public participants;  // \r\n    Conference[] public conferences;                       // \r\n    mapping(address => Participant[]) public trustees;    // \r\n    \r\n    // \r\n    event NewConference(uint indexed conferenceId, string name, uint maxParticipants);\r\n    event ConferenceExpire(uint indexed conferenceId, string name);\r\n    event MyNewConference(address indexed participant, uint indexed conferenceId);\r\n    event ParticipantRegistered(address indexed participant, string name);\r\n    event EnrollmentSuccess(address indexed participant, uint indexed conferenceId);\r\n    event DelegateEnrollment(address indexed trustee, address indexed participant, uint indexed conferenceId);\r\n    \r\n    // \r\n    modifier onlyAdministrator() {\r\n        require(msg.sender == administrator, \"Only administrator can call this function\");\r\n        _;\r\n    }\r\n    \r\n    // \r\n    modifier onlyRegistered() {\r\n        require(participants[msg.sender].isRegistered, \"User must be registered first\");\r\n        _;\r\n    }\r\n    \r\n    // \r\n    modifier conferenceExists(uint _conferenceId) {\r\n        require(_conferenceId < conferences.length, \"Conference does not exist\");\r\n        _;\r\n    }\r\n    \r\n    /**\r\n     * @dev \r\n     */\r\n    constructor() {\r\n        administrator = msg.sender;\r\n    }\r\n    \r\n    /**\r\n     * @dev \r\n     * @param _name \r\n     */\r\n    function signUp(string memory _name) public {\r\n        require(!participants[msg.sender].isRegistered, \"User already registered\");\r\n        require(bytes(_name).length > 0, \"Name cannot be empty\");\r\n        \r\n        participants[msg.sender] = Participant({\r\n            name: _name,\r\n            isRegistered: true,\r\n            enrolledConferences: new uint[](0)\r\n        });\r\n        \r\n        emit ParticipantRegistered(msg.sender, _name);\r\n    }\r\n    \r\n    /**\r\n     * @dev \r\n     * @param _trustee \r\n     */\r\n    function delegate(address _trustee) public onlyRegistered {\r\n        require(_trustee != address(0), \"Invalid trustee address\");\r\n        require(_trustee != msg.sender, \"Cannot delegate to yourself\");\r\n        \r\n        trustees[_trustee].push(participants[msg.sender]);\r\n    }\r\n    \r\n    /**\r\n     * @dev \r\n     * @param _conferenceId ID\r\n     */\r\n    function enroll(uint _conferenceId) public onlyRegistered conferenceExists(_conferenceId) {\r\n        _enrollInternal(msg.sender, _conferenceId);\r\n    }\r\n    \r\n    /**\r\n     * @dev \r\n     * @param _participant \r\n     * @param _conferenceId ID\r\n     */\r\n    function enrollFor(address _participant, uint _conferenceId) public conferenceExists(_conferenceId) {\r\n        require(_participant != address(0), \"Invalid participant address\");\r\n        require(participants[_participant].isRegistered, \"Participant must be registered\");\r\n        \r\n        // \r\n        bool hasDelegation = false;\r\n        for (uint i = 0; i < trustees[msg.sender].length; i++) {\r\n            if (keccak256(bytes(trustees[msg.sender][i].name)) == keccak256(bytes(participants[_participant].name))) {\r\n                hasDelegation = true;\r\n                break;\r\n            }\r\n        }\r\n        require(hasDelegation, \"No delegation permission for this participant\");\r\n        \r\n        _enrollInternal(_participant, _conferenceId);\r\n        emit DelegateEnrollment(msg.sender, _participant, _conferenceId);\r\n    }\r\n    \r\n    /**\r\n     * @dev \r\n     * @param _participant \r\n     * @param _conferenceId ID\r\n     */\r\n    function _enrollInternal(address _participant, uint _conferenceId) internal {\r\n        Conference storage conf = conferences[_conferenceId];\r\n        \r\n        require(!conf.isFull, \"Conference is full\");\r\n        require(!conf.isEnrolled[_participant], \"Already enrolled in this conference\");\r\n        \r\n        // \r\n        conf.participants.push(_participant);\r\n        conf.isEnrolled[_participant] = true;\r\n        conf.currentParticipants++;\r\n        \r\n        // \r\n        participants[_participant].enrolledConferences.push(_conferenceId);\r\n        \r\n        // \r\n        if (conf.currentParticipants >= conf.maxParticipants) {\r\n            conf.isFull = true;\r\n            emit ConferenceExpire(_conferenceId, conf.name);\r\n        }\r\n        \r\n        emit EnrollmentSuccess(_participant, _conferenceId);\r\n        emit MyNewConference(_participant, _conferenceId);\r\n    }\r\n    \r\n    /**\r\n     * @dev \r\n     * @param _name \r\n     * @param _maxParticipants \r\n     */\r\n    function newConference(string memory _name, uint _maxParticipants) public onlyAdministrator {\r\n        require(bytes(_name).length > 0, \"Conference name cannot be empty\");\r\n        require(_maxParticipants > 0, \"Max participants must be greater than 0\");\r\n        \r\n        conferences.push();\r\n        uint conferenceId = conferences.length - 1;\r\n        \r\n        Conference storage newConf = conferences[conferenceId];\r\n        newConf.name = _name;\r\n        newConf.maxParticipants = _maxParticipants;\r\n        newConf.currentParticipants = 0;\r\n        newConf.isFull = false;\r\n        \r\n        emit NewConference(conferenceId, _name, _maxParticipants);\r\n    }\r\n    \r\n    /**\r\n     * @dev \r\n     */\r\n    function destruct() public onlyAdministrator {\r\n        selfdestruct(payable(administrator));\r\n    }\r\n    \r\n    /**\r\n     * @dev \r\n     * @return availableConferences ID\r\n     */\r\n    function queryConfList() public view returns (uint[] memory) {\r\n        uint count = 0;\r\n        for (uint i = 0; i < conferences.length; i++) {\r\n            if (!conferences[i].isFull) {\r\n                count++;\r\n            }\r\n        }\r\n        \r\n        uint[] memory availableConferences = new uint[](count);\r\n        uint index = 0;\r\n        for (uint i = 0; i < conferences.length; i++) {\r\n            if (!conferences[i].isFull) {\r\n                availableConferences[index] = i;\r\n                index++;\r\n            }\r\n        }\r\n        \r\n        return availableConferences;\r\n    }\r\n    \r\n    /**\r\n     * @dev \r\n     * @return myConferences ID\r\n     */\r\n    function queryMyConf() public view onlyRegistered returns (uint[] memory) {\r\n        return participants[msg.sender].enrolledConferences;\r\n    }\r\n    \r\n    /**\r\n     * @dev \r\n     * @param _conferenceId ID\r\n     * @return name \r\n     * @return maxParticipants \r\n     * @return currentParticipants \r\n     * @return isFull \r\n     */\r\n    function getConferenceInfo(uint _conferenceId) public view conferenceExists(_conferenceId) \r\n        returns (string memory name, uint maxParticipants, uint currentParticipants, bool isFull) {\r\n        Conference storage conf = conferences[_conferenceId];\r\n        return (conf.name, conf.maxParticipants, conf.currentParticipants, conf.isFull);\r\n    }\r\n    \r\n    /**\r\n     * @dev \r\n     * @param _participant \r\n     * @return name \r\n     * @return isRegistered \r\n     */\r\n    function getParticipantInfo(address _participant) public view \r\n        returns (string memory name, bool isRegistered) {\r\n        Participant storage p = participants[_participant];\r\n        return (p.name, p.isRegistered);\r\n    }\r\n    \r\n    /**\r\n     * @dev \r\n     * @return \r\n     */\r\n    function getConferenceCount() public view returns (uint) {\r\n        return conferences.length;\r\n    }\r\n    \r\n    /**\r\n     * @dev \r\n     * @param _participant \r\n     * @param _conferenceId ID\r\n     * @return \r\n     */\r\n    function isEnrolledInConference(address _participant, uint _conferenceId) \r\n        public view conferenceExists(_conferenceId) returns (bool) {\r\n        return conferences[_conferenceId].isEnrolled[_participant];\r\n    }\r\n}\r\n",
  "sourcePath": "F:\\git\\bestzwei\\Blockchain-Lab\\meeting-dapp\\contracts\\Enrollment.sol",
  "compiler": {
    "name": "solc",
    "version": "0.8.19+commit.7dd6d404.Emscripten.clang"
  },
  "schemaVersion": "3.4.16",
  "updatedAt": "2025-06-11T11:21:50.234Z",
  "networkType": "ethereum",
  "devdoc": {
    "details": "",
    "kind": "dev",
    "methods": {
      "constructor": {
        "details": ""
      },
      "delegate(address)": {
        "details": "",
        "params": {
          "_trustee": ""
        }
      },
      "destruct()": {
        "details": ""
      },
      "enroll(uint256)": {
        "details": "",
        "params": {
          "_conferenceId": "ID"
        }
      },
      "enrollFor(address,uint256)": {
        "details": "",
        "params": {
          "_conferenceId": "ID",
          "_participant": ""
        }
      },
      "getConferenceCount()": {
        "details": "",
        "returns": {
          "_0": ""
        }
      },
      "getConferenceInfo(uint256)": {
        "details": "",
        "params": {
          "_conferenceId": "ID"
        },
        "returns": {
          "currentParticipants": "",
          "isFull": "",
          "maxParticipants": "",
          "name": ""
        }
      },
      "getParticipantInfo(address)": {
        "details": "",
        "params": {
          "_participant": ""
        },
        "returns": {
          "isRegistered": "",
          "name": ""
        }
      },
      "isEnrolledInConference(address,uint256)": {
        "details": "",
        "params": {
          "_conferenceId": "ID",
          "_participant": ""
        },
        "returns": {
          "_0": ""
        }
      },
      "newConference(string,uint256)": {
        "details": "",
        "params": {
          "_maxParticipants": "",
          "_name": ""
        }
      },
      "queryConfList()": {
        "details": "",
        "returns": {
          "_0": "availableConferences ID"
        }
      },
      "queryMyConf()": {
        "details": "",
        "returns": {
          "_0": "myConferences ID"
        }
      },
      "signUp(string)": {
        "details": "",
        "params": {
          "_name": ""
        }
      }
    },
    "title": "",
    "version": 1
  },
  "userdoc": {
    "kind": "user",
    "methods": {},
    "version": 1
  }
}